:020000040800F2
:100000000000022035E10008B1290008B5290008E8
:10001000B9290008BD290008C12900080000000016
:10002000000000000000000000000000C5290008DA
:10003000C929000800000000CD290008D1290008C6
:1000400085E1000885E1000885E1000885E10008F8
:1000500085E1000885E1000885E1000885E10008E8
:1000600085E1000885E1000885E1000885E10008D8
:1000700085E1000885E1000885E1000885E10008C8
:1000800085E1000885E1000885E1000885E10008B8
:1000900085E1000885E1000885E1000885E10008A8
:1000A00085E1000885E1000885E1000885E1000898
:1000B00085E1000885E1000885E1000885E1000888
:1000C00085E1000885E1000885E1000885E1000878
:1000D00085E1000885E1000885E1000885E1000868
:1000E00085E1000885E1000885E1000885E1000858
:1000F00085E1000885E1000885E1000885E1000848
:1001000085E1000885E1000885E1000885E1000837
:1001100085E1000885E1000885E1000885E1000827
:1001200085E1000885E1000885E10008D52900087F
:1001300085E1000885E1000885E1000885E1000807
:1001400085E1000885E1000885E1000885E10008F7
:1001500085E1000885E1000885E1000885E10008E7
:1001600085E1000885E1000885E1000885E10008D7
:1001700085E1000885E1000885E100080000000035
:0801800085E1000885E100089B
:1001900010B5054C237833B9044B13B10448AFF3C1
:1001A00000800123237010BDA00200200000000089
:1001B0002C71010808B5034B1BB103490348AFF389
:1001C000008008BD00000000A40200202C7101087E
:1001D00001F0FF01102A2BDB10F0070F08D010F8F8
:1001E000013B013A8B422DD010F0070F42B3F6D1FC
:1001F000F0B441EA012141EA014122F007047FF015
:1002000000070023F0E80256083C85EA010586EA6B
:10021000010685FA47F5A3FA87F586FA47F6A5FAA7
:1002200087F68EB9EED1F0BC01F0FF0102F00702B3
:1002300032B110F8013B013A83EA010313B1F8D15E
:100240000020704701387047002D06BF354603383F
:10025000073815F0010F07D1013015F4807F02BF78
:10026000013015F4C03F0130F0BC0138704700BFC9
:10027000034613F8012B002AFBD1181A01387047E6
:1002800081F0004102E000BF83F0004330B54FEA47
:1002900041044FEA430594EA050F08BF90EA020FB4
:1002A0001FBF54EA000C55EA020C7FEA645C7FEA47
:1002B000655C00F0E2804FEA5454D4EB5555B8BF6A
:1002C0006D420CDD2C4480EA020281EA030382EADB
:1002D000000083EA010180EA020281EA0303362D6D
:1002E00088BF30BD11F0004F4FEA01314FF4801C40
:1002F0004CEA113102D0404261EB410113F0004F52
:100300004FEA03334CEA133302D0524263EB430308
:1003100094EA050F00F0A780A4F10104D5F1200EA6
:100320000DDB02FA0EFC22FA05F2801841F1000101
:1003300003FA0EF2801843FA05F359410EE0A5F1D5
:1003400020050EF1200E012A03FA0EFC28BF4CF006
:10035000020C43FA05F3C01851EBE37101F00045BC
:1003600007D54FF0000EDCF1000C7EEB00006EEBC9
:100370000101B1F5801F1BD3B1F5001F0CD3490853
:100380005FEA30004FEA3C0C04F101044FEA4452AA
:1003900012F5800F80F09A80BCF1004F08BF5FEA31
:1003A000500C50F1000041EB045141EA050130BD11
:1003B0005FEA4C0C404141EB0101013C28BFB1F523
:1003C000801FE9D291F0000F04BF01460020B1FA6E
:1003D00081F308BF2033A3F10B03B3F120020CDA41
:1003E0000C3208DD02F1140CC2F10C0201FA0CF01F
:1003F00021FA02F10CE002F11402D8BFC2F1200C84
:1004000001FA02F120FA0CFCDCBF41EA0C01904039
:10041000E41AA2BF01EB0451294330BD6FEA040482
:100420001F3C1CDA0C340EDC04F11404C4F120026D
:1004300020FA04F001FA02F340EA030021FA04F37F
:1004400045EA030130BDC4F10C04C4F1200220FAD6
:1004500002F001FA04F340EA0300294630BD21FA14
:1004600004F0294630BD94F0000F83F4801306BFDA
:1004700081F480110134013D4EE77FEA645C18BFCE
:100480007FEA655C29D094EA050F08BF90EA020F65
:1004900005D054EA000C04BF1946104630BD91EA5D
:1004A000030F1EBF0021002030BD5FEA545C05D160
:1004B0004000494128BF41F0004130BD14F580049F
:1004C0003CBF01F5801130BD01F0004545F0FE4113
:1004D00041F470014FF0000030BD7FEA645C1ABF48
:1004E000194610467FEA655C1CBF0B46024650EA7F
:1004F000013406BF52EA033591EA030F41F40021AB
:1005000030BD00BF90F0000F04BF0021704730B530
:100510004FF4806404F132044FF000054FF0000105
:1005200050E700BF90F0000F04BF0021704730B5C6
:100530004FF4806404F1320410F0004548BF40429B
:100540004FF000013EE700BF42004FEAE2014FEAF0
:1005500031014FEA02701FBF12F07F4393F07F4FCB
:1005600081F06051704732F07F4208BF704793F0CE
:100570007F4F04BF41F40021704730B54FF46074E1
:1005800001F0004521F000411CE700BF50EA0102E4
:1005900008BF704730B54FF000050AE050EA01028D
:1005A00008BF704730B511F0004502D5404261EBFD
:1005B00041014FF4806404F132045FEA915C3FF43E
:1005C000D8AE4FF003025FEADC0C18BF03325FEADB
:1005D000DC0C18BF033202EBDC02C2F1200300FA8C
:1005E00003FC20FA02F001FA03FE40EA0E0021FAB1
:1005F00002F11444BDE600BF70B54FF0FF0C4CF49F
:10060000E06C1CEA11541DBF1CEA135594EA0C0F50
:1006100095EA0C0F00F0DEF82C4481EA030621EA8B
:100620004C5123EA4C5350EA013518BF52EA0335C6
:1006300041F4801143F4801338D0A0FB02CE4FF078
:100640000005E1FB02E506F00042E0FB03E54FF0A8
:100650000006E1FB03569CF0000F18BF4EF0010EA0
:10066000A4F1FF04B6F5007F64F5407404D25FEA9C
:100670004E0E6D4146EB060642EAC62141EA55514F
:100680004FEAC52040EA5E504FEACE2EB4F1FD0C91
:1006900088BFBCF5E06F1ED8BEF1004F08BF5FEA0F
:1006A000500E50F1000041EB045170BD06F00046C1
:1006B00046EA010140EA020081EA0301B4EB5C046E
:1006C000C2BFD4EB0C0541EA045170BD41F4801166
:1006D0004FF0000E013C00F3AB8014F1360FDEBF8B
:1006E000002001F0004170BDC4F10004203C35DA67
:1006F0000C341BDC04F11404C4F1200500FA05F3EA
:1007000020FA04F001FA05F240EA020001F000428A
:1007100021F0004110EBD37021FA04F642EB060100
:100720005EEA430E08BF20EAD37070BDC4F10C042A
:10073000C4F1200500FA04F320FA05F001FA04F2EE
:1007400040EA020001F0004110EBD37041F10001DA
:100750005EEA430E08BF20EAD37070BDC4F12005E5
:1007600000FA05F24EEA020E20FA04F301FA05F24D
:1007700043EA020321FA04F001F0004121FA04F2F5
:1007800020EA020000EBD3705EEA430E08BF20EAC5
:10079000D37070BD94F0000F0FD101F000464000FF
:1007A00041EB010111F4801F08BF013CF7D041EA81
:1007B000060195F0000F18BF704703F00046520085
:1007C00043EB030313F4801F08BF013DF7D043EA56
:1007D0000603704794EA0C0F0CEA135518BF95EA0C
:1007E0000C0F0CD050EA410618BF52EA4306D1D193
:1007F00081EA030101F000414FF0000070BD50EAB2
:10080000410606BF1046194652EA430619D094EA3B
:100810000C0F02D150EA013613D195EA0C0F05D125
:1008200052EA03361CBF104619460AD181EA030179
:1008300001F0004141F0FE4141F470014FF0000031
:1008400070BD41F0FE4141F4780170BD70B54FF0CC
:10085000FF0C4CF4E06C1CEA11541DBF1CEA13554C
:1008600094EA0C0F95EA0C0F00F0A7F8A4EB05042E
:1008700081EA030E52EA03354FEA013100F0888025
:100880004FEA03334FF0805545EA131343EA1263EE
:100890004FEA022245EA111545EA10654FEA0026A3
:1008A0000EF000419D4208BF964244F1FD0404F55C
:1008B000407402D25B084FEA3202B61A65EB0305B8
:1008C0005B084FEA32024FF480104FF4002CB6EB75
:1008D000020E75EB030E22BFB61A754640EA0C00F5
:1008E0005B084FEA3202B6EB020E75EB030E22BF35
:1008F000B61A754640EA5C005B084FEA3202B6EB76
:10090000020E75EB030E22BFB61A754640EA9C0034
:100910005B084FEA3202B6EB020E75EB030E22BF04
:10092000B61A754640EADC0055EA060E18D04FEAC2
:10093000051545EA16754FEA06164FEAC30343EA62
:1009400052734FEAC2025FEA1C1CC0D111F4801F2F
:100950000BD141EA00014FF000004FF0004CB6E728
:1009600011F4801F04BF01430020B4F1FD0C88BFC7
:10097000BCF5E06F3FF6AFAEB5EB030C04BFB6EBD2
:10098000020C5FEA500C50F1000041EB045170BDC5
:100990000EF0004E4EEA113114EB5C04C2BFD4EBF2
:1009A0000C0541EA045170BD41F480114FF0000E76
:1009B000013C90E645EA060E8DE60CEA135594EAF2
:1009C0000C0F08BF95EA0C0F3FF43BAF94EA0C0FF5
:1009D0000AD150EA01347FF434AF95EA0C0F7FF46A
:1009E00025AF104619462CE795EA0C0F06D152EABE
:1009F00003353FF4FDAE1046194622E750EA4106A2
:100A000018BF52EA43067FF4C5AE50EA41047FF4B2
:100A10000DAF52EA43057FF4EBAE12E74FF0FF3C17
:100A200006E000BF4FF0010C02E000BF4FF0010CE8
:100A30004DF804CD4FEA410C7FEA6C5C4FEA430C61
:100A400018BF7FEA6C5C1BD001B050EA410C0CBFB0
:100A500052EA430C91EA030F02BF90EA020F002012
:100A6000704710F1000F91EA030F58BF994208BF79
:100A700090422CBFD8176FEAE37040F00100704736
:100A80004FEA410C7FEA6C5C02D150EA013C07D18D
:100A90004FEA430C7FEA6C5CD6D152EA033CD3D0D8
:100AA0005DF8040B704700BF8446104662468C46D2
:100AB0001946634600E000BF01B5FFF7B7FF002805
:100AC00048BF10F1000F01BD4DF808EDFFF7F4FF2E
:100AD0000CBF012000205DF808FB00BF4DF808EDB9
:100AE000FFF7EAFF34BF012000205DF808FB00BFDC
:100AF0004DF808EDFFF7E0FF94BF012000205DF8FE
:100B000008FB00BF4DF808EDFFF7CEFF94BF0120B2
:100B100000205DF808FB00BF4DF808EDFFF7C4FFAB
:100B200034BF012000205DF808FB00BF4FEA410CF4
:100B30007FEA6C5C02D150EA013C0AD14FEA430CD7
:100B40007FEA6C5C02D152EA033C02D14FF0000014
:100B500070474FF0010070474FEA410212F5001252
:100B600015D211D56FF47873B3EB625212D94FEAF4
:100B7000C12343F0004343EA505311F0004F23FADE
:100B800002F018BF404270474FF00000704750EA33
:100B9000013005D111F0004008BF6FF000407047F0
:100BA0004FF00000704700BF4A0011D212F500124A
:100BB00011D20DD56FF47873B3EB62520ED44FEAB5
:100BC000C12343F0004343EA505323FA02F0704735
:100BD0004FF00000704750EA013002D14FF0FF3073
:100BE00070474FF0000070474FEA4102B2F1E04316
:100BF00024BFB3F5001CDCF1FE5C0DD901F0004C04
:100C00004FEAC0024CEA5070B2F1004F40EB830053
:100C100008BF20F00100704711F0804F21D113F17F
:100C20003872BCBF01F00040704741F480114FEAB8
:100C30005252C2F11802C2F1200C10FA0CF320FA41
:100C400002F018BF40F001004FEAC1234FEAD3235E
:100C500003FA0CFC40EA0C0023FA02F34FEA4303C8
:100C6000CCE77FEA625307D150EA01331EBF4FF051
:100C7000FE4040F44000704701F0004040F0FE406C
:100C800040F40000704700BF53B94AB9002908BFBB
:100C900000281CBF4FF0FF314FF0FF3000F0A6B925
:100CA000ADF1080C6DE904CE00F03CF8DDF804E08D
:100CB000DDE9022304B0704738B500220023044662
:100CC0000D46FFF70BFF28B920462946BDE83840FE
:100CD00000F00AB8204605F1004100F005F8404256
:100CE00061EB410138BD00BFD0B50C4B0022064678
:100CF0000F46FFF781FCFFF757FF0446FFF702FCA2
:100D0000074B0022FFF778FC02460B463046394677
:100D1000FFF7BAFAFFF748FF2146D0BD0000F03DCB
:100D20000000F0412DE9F047089E0D4604460F46AD
:100D3000002B4AD18A42944665D9B2FA82F343B174
:100D400002FA03FCC3F120029F4020FA02F217438B
:100D50009C404FEA1C4E1FFA8CF5B7FBFEF1220CAB
:100D60000EFB117742EA074201FB05F090420AD9D7
:100D70001CEB020201F1FF3780F01C81904240F22F
:100D8000198102396244121AA4B2B2FBFEF00EFBC2
:100D9000102244EA024400FB05F5A5420AD91CEBE7
:100DA000040400F1FF3280F00781A54240F2048183
:100DB0006444023840EA0140641B00211EB1DC405B
:100DC0000023C6E90043BDE8F0878B4208D9002E16
:100DD00000F0ED800021C6E900050846BDE8F08777
:100DE000B3FA83F1002949D1AB4202D3824200F227
:100DF000F880841A65EB030201201746002EE2D02A
:100E0000C6E90047DFE702B9FFDEB2FA82F3002B42
:100E100040F090808A1A4FEA1C471FFA8CFE01218D
:100E2000B2FBF7F507FB1520220C42EA00420EFB4D
:100E300005F0904208D91CEB020205F1FF3802D2FE
:100E4000904200F2CB804546121AA4B2B2FBF7F0F2
:100E500007FB102244EA02440EFB00FEA64508D917
:100E60001CEB040400F1FF3202D2A64500F2BB8065
:100E70001046A4EB0E0440EA05409FE7C1F12007AD
:100E80008B4022FA07FC4CEA030C05FA01F420FA25
:100E900007F3FD404FEA1C492343B5FBF9F81FFA5D
:100EA0008CFE09FB18551C0C44EA054408FB0EF5A2
:100EB000A54202FA01F200FA01F00BD91CEB04047E
:100EC00008F1FF3A80F08880A54240F28580A8F1C1
:100ED00002086444641B9DB2B4FBF9F309FB13449C
:100EE00045EA044403FB0EFEA64508D91CEB0404A6
:100EF00003F1FF356CD2A6456AD9023B644443EA4C
:100F00000843A3FB0295A4EB0E04AC42C846AE46D0
:100F100056D353D056B1B0EB080264EB0E0404FA7A
:100F200007F7CA40CC401743C6E9007418460021B1
:100F3000BDE8F087C3F1200102FA03FC20FA01F2B8
:100F400025FA01F19D402A434FEA1C471FFA8CFE07
:100F5000B1FBF7F007FB1015110C41EA054100FB4E
:100F60000EF58D4204FA03F408D91CEB010100F1DF
:100F7000FF382FD28D422DD902386144491B92B2DD
:100F8000B1FBF7F507FB151142EA014205FB0EF133
:100F9000914208D91CEB020205F1FF3816D29142AA
:100FA00014D9023D6244521A45EA004138E73146FD
:100FB000304608E73946E6E61046FBE64845A9D242
:100FC000B9EB020865EB0C0E013BA3E74546EAE7E7
:100FD0002B4694E74046D1E7D0467BE7023D62448A
:100FE00032E708460AE76444023842E7704700BF28
:100FF000002906DB43688B4200DC591E016008466D
:101000007047002101600846704700BF38B5D0E93D
:101010000034E41A9442A8BF1446002C0BDD0546A8
:101020000846A9682246194410F0F7FC2B682344AF
:101030002B60204638BD0024204638BD2DE9F04FF6
:101040000023076D80F8363080F82E30BC4A436D9F
:10105000826107F1FF029A42C8BFA3EB070983B080
:10106000CCBF09F1FF394FF0FF0900F1740500F121
:101070005008C36B009106464A46294640469847A9
:101080008145044606D00623F3820027384603B084
:10109000BDE8F08FA7BBAB490522284610F014FC31
:1010A00038B1A9490522284610F00EFC002840F06E
:1010B000CD8196F87B2096F87A3003EB02239BB221
:1010C00096F87D203380B38096F87C3003EB0223C2
:1010D0009BB27380F38096F87E3096F87F2086F876
:1010E0003220C3F302120132B282002286F831208C
:1010F0001A0600F12F810D2106F18103894602E0D5
:1011000000212B4689461A782C2A2CD023463B2ACC
:1011100000F0B880212A40F0778105EB090209F13F
:10112000020A5278F92A00F0E880FF2A40F0928003
:101130009B4615F80A400AF1010CABEB0C0904F1CF
:101140001F034B4580F2C38004EB0C0A0B2C00F00C
:10115000A280002CEDD115F80A202C2A5B465146BE
:10116000D146D4D11C46009B002B40F08F802944EF
:1011700005EB09008A78437803EB022333820A796E
:10118000CB7803EB022373828A794B7903EB02233A
:101190009BB2338091F808C0CA79B18802EB0C2267
:1011A00092B299427280C0F02881F3889342C0F0D5
:1011B0002481437A86F835301A0609F10A0B00F1CA
:1011C000558115F80B30614A86F83430D35CB38210
:1011D00000230BF10101736241F27469AB46009781
:1011E0008C4201F1010A51DD1BF80150706AA4EB39
:1011F0000A074844BD420BEB0A01304400F3E48087
:101200002A4610F00AFC736A2B4405EB0A0173624C
:10121000002DE5D101258C42009F86F82E5035DD4A
:101220003944336C404698472F462FE70AF1750141
:101230005A463144284610F057FB0BF17401F36B0A
:1012400004F120023144404698474F440BEB000321
:10125000A2466CB115F80A400AF10109A3EB090B8B
:1012600004F11F025A45E1DA04EB090A002CF1D11E
:1012700015F80A205146D1462C2A3FF473AF3B2A79
:101280007FF448AF009B002B00F0DC80012738463C
:1012900003B0BDE8F08F05EB0C092D492246484606
:1012A00010F012FB00287FF444AF99F80B30032BA9
:1012B0007FF43FAF99F80C30012B7FF43AAF99F8E7
:1012C0000E2099F80D3003EB0223738331E70AF106
:1012D00075014A4631442846674410F005FB09F180
:1012E0007401F36B04F12002314440469847A24652
:1012F00009EB000B4FF0000C28E715F80A20042A30
:1013000002D05146D146B7E7294409F10809C87807
:1013100086F831004C790A7902EB042202EB820252
:10132000520092B2012A98BF14223283C00744BFF0
:101330008A7986F8332015F8092049469CE700BFD2
:101340000000FFFF70710108787101088C710108BD
:101350008071010803F0070303F1010904F174012E
:10136000032202FA09F2F36B019231444046984796
:1013700096F83730019A012B04446AD806F5835158
:101380000220123100FA09F008443246002B43D003
:1013900092F881C092F883304FEADC0CDB0843EA14
:1013A000CC2392F882C04FEA9C0C43EA4C135BBA00
:1013B00021F8023F814202F10302E9D1032303FA3B
:1013C00009F909F10D094DE03A4610F026FB716A62
:1013D000F36B3944A5EB070A716249443144524624
:1013E00040469847736A534421467362002D7FF448
:1013F000F7AE012386F82E3048E700270123384650
:10140000F38203B0BDE8F08F736DDB1B1F2BF4DCA0
:101410000723F382002739E692F881C092F88330DF
:101420004FEADC0CDB0843EACC2392F882C04FEA97
:101430009C0C43EA4C1321F8023F884202F103025C
:10144000EAD1BBE70723F38201271FE60823F382D3
:101450001CE606F58350143006F1810102F10D09F6
:1014600010F0DBFA494605EB09034CE603F00703ED
:1014700003F1010A04F17401032202FA0AF2F36B88
:10148000009231444046984796F83730009A012B35
:10149000044438D806F59B520221123201FA0AF1AF
:1014A000B1441144DBB199F87E0099F88030C0084E
:1014B000DB0843EAC02399F87F00800843EA401321
:1014C0005BBA22F8023F8A4209F10309EBD10323F8
:1014D00003FA0AF39B44012386F8363071E699F843
:1014E0007E0099F88030C008DB0843EAC02399F8F1
:1014F0007F00800843EA401322F8023F8A4209F144
:101500000309ECD1E3E706F59B5005EB0B01143022
:10151000934410F082FADEE7F0B5044683B094F805
:101520002E200120D4E908318DF80700002A57D178
:10153000C91A4A1E40F2F940824251D86BB3052ABB
:1015400055D91D1D53D841F27462A0181A44224483
:1015500021F00306164452F8045B40F8045BB242E3
:10156000F9D1880721F0030214D023449D1841F2D9
:1015700074602E5CA5182E54551CA9420ADD5E1914
:1015800002322544365C2E54914203DD134422443A
:101590001B5C13540023C4E9083140F2FA4604F1FD
:1015A000500514E0636AB3421ADCE36B9847616A42
:1015B000E36B9DF8072001F5B3511431214428460F
:1015C0009847636A9DF807201344636252B1D4E9D7
:1015D00014739F424FF001020DF107012846E1DB31
:1015E00003B0F0BD012384F82E3003B0F0BD41F20A
:1015F0007362134422442344551813F8010F02F870
:10160000010FAA42F9D1C5E72DE9F04F0388828B7B
:1016100000F5B84741F2167C9B1A6E3761458FB0D2
:1016200004463B4466D800F5835808F1140800F5D9
:10163000E35004F598460E306E364546725C05F868
:10164000012D30F811106145F8D9B8EB050651D0DD
:1016500004F59B5214320192E28B29461846002A67
:1016600048D0A28BB24253DC10F0D7F994F8312065
:1016700094F836C06088B4F810A0E38BA18BCDF845
:1016800008A002F001020092019AB4F812A0D4F866
:101690004490CDF80CA0BCF1000FB4F800C094F851
:1016A00033A0A4F81CC018BF9346A0EB030E009A09
:1016B0008DF8312008BFC346CDE905C0761ACDF8B4
:1016C00028B009978DF830A0CDF810E00D44B9F19D
:1016D000000F02D002A8C847E38B226A013BB2F593
:1016E0007F7FE3830DDA4EB13B46E28B29461846F5
:1016F000002AB6D1236AB3F57F7F15DA0FB0BDE8B3
:10170000F08F2046FFF708FF002EF3D03B46ECE7B2
:1017100032461846294610F080F9A38B226A9B1B9B
:10172000B2F57F7FA383E9DB20460FB0BDE8F04F21
:10173000FFF7F2BE2DE9F04F2DED028B90F834301B
:10174000D0F824C08BB001334FF6FF7500F5B352CB
:101750009D4014322DB203920268C2616FEA6505A2
:1017600000F5E352ADB20E32AB1C059200F571529A
:101770009BB22E320293069290F82E3000226C1CFF
:10178000026201228046A4B28DF827209BBB0CF197
:10179000FF3240F2F9439A422DD840F2FA4700F165
:1017A0005006A946A24663461AE0BB4221DCD8F89F
:1017B0003C309847D8F82410D8F83C309DF82720C2
:1017C00001F5B3511431414430469847D8F82430DC
:1017D0009DF827201344C8F82430002A00F0F78031
:1017E000D8E91445AC424FF001020DF12701304613
:1017F000DBDB4D465446ACB108F5715608F5E350B5
:1018000008F598412D360C306D31002341F21877E0
:10181000DAB20133A34201F8012F06F8012F20F8B4
:10182000027FF5D10335ABB20793C4F580535B005B
:1018300008EE903A059B019403EB440308EE103A3E
:10184000002598F834704FF6FF7307F101094F46F1
:1018500003FA09F90123BB4018EE902A41F21771EF
:1018600018EE100A1FFA83FA10F058F8D8F8202062
:10187000039BC7F1200C99180FFA89F9AC454E78F3
:1018800091F802E0985CC9786FEA090972DB00EB15
:10189000062606EB0E4606EB016626FA05F1019BCD
:1018A00009EA01018CB2A3423D4475D0E3B221465E
:1018B00040460493FFF7A8FE029BA34254D0B8F819
:1018C0001E30DDF81CB0002B4ED0C7F12003AB4218
:1018D00013DAD8F82030039A03EBE503D018C8F8E0
:1018E0002030D65C437806EB0326837806EB03466C
:1018F000C37805F0070506EB036626FA05F3019A9F
:1019000009EA03039BB29A423D449AD0029A9A4252
:101910002AD0D3450DD2059A049922F81B40069A85
:1019200002F80B1002EB0B0101F58051D25C04921E
:101930000A700BF1010B1FFA8BFBD3450BD30B2F56
:1019400009D84FEA4A021FFA82FA01370AF1FF3931
:10195000BFB20FFA89F9194640461C46FFF754FEFC
:10196000B8F81E30002BB0D100200BB0BDEC028BBC
:10197000BDE8F08F02EBE5029918C8F820204878FE
:101980009E5C06EB00268878C97806EB004605F0D9
:10199000070506EB016680E7AC4511DA039B02EB15
:1019A000E5029918C8F820209E5C4A7806EB0226CA
:1019B0008A7806EB0246CA7805F0070506EB026650
:1019C00026FA05F109EA01018CB23D446EE70123D4
:1019D0004D46544688F82E300DE700BF38B5044612
:1019E0000D4645F6506200210FF098FF84F83750FD
:1019F00038BD00BF38B543640E4BC36300250E4BA2
:101A0000C582C0E91521C0E91255012103640565AD
:101A10000446FFF713FB60B1236C294604F1500024
:101A20009847A388B3F5F07F83BF0223E38228465B
:101A3000012038BD0D100008F10F000870B50446F4
:101A400016460D4609B100230B60D4E91413013B7F
:101A5000994204DB236C002104F1500098470021D7
:101A60002046FFF7EBFA98B1B4F916302666072B3B
:101A70000ED02046FFF75EFE50B90DB1238B2B60D0
:101A8000D4E91403013B9842ACBF0020012070BD93
:101A9000002070BD80887047C08870472DE9F041F4
:101AA0001B4F3C7886B0064688461546BCB1194B9C
:101AB000194A1B780370194B12781B780A702B7027
:101AC000012C04D0022C02D0032C18BF0024144B8C
:101AD0001978204606B0BDE8F04102F011B8224660
:101AE00001A910480DF05EFD22460E4869460EF031
:101AF00009F89DF804309DF80520172B98BF1C4667
:101B00009DF80630347088F800203C782B70D7E7B9
:101B1000C7020020C4020020C5020020C602002027
:101B2000000000203003002010B5534C2278531CD5
:101B3000DBB2242B237006D900232370BDE81040AC
:101B40000A2009F071BC103A012A12D84B4A002130
:101B50001170142B1ED14A4A002111709A1F042AB9
:101B600043D8484B484A1B78BDE81040D05C09F088
:101B70005BBC0A2B02D102F073FA23780D2B02D141
:101B800003F05AFC2378132BE3D105F033F82378C4
:101B9000142BE0D0152B02D108F050FA2378162B25
:101BA00066D0172B60D0182B02D104F0FDFD2378EE
:101BB000192B55D01A2B4FD01B2B49D01C2B43D09F
:101BC0001D2B3DD01E2B37D01F2B31D0202B2BD0DF
:101BD000212B25D0222B1FD0232B19D0242B11D021
:101BE000002BABD09A1F042ABBD9113B012B95BF08
:101BF000264B274B274A284A1B78BDE81040D05C6B
:101C000009F012BC03F0C6FA2378002B96D0E9E75E
:101C100001F022FB2378E1E706F0BAFA2378DBE74C
:101C200005F0F0FE2378D5E708F098FE2378CFE79B
:101C300001F01CF82378C9E706F00CF82378C3E715
:101C400001F05EFC2378BDE707F0E0FE2378B7E7FC
:101C500000F02CFF2378B1E701F038FD2378ABE7E3
:101C600004F082F82378A5E705F0ACFB23789AE727
:101C700006F086FD237894E7BC020020F0030020E4
:101C80002903002002000020F47101080300002055
:101C900001000020FC710108EC7101080000000047
:101CA00030B5002395B0CDE90A33CDE90333CDE952
:101CB0000533254901930C9309930D930793086C01
:101CC000224A40F080500864096C01F08051019173
:101CD00001990293116841F48041116012680F93D9
:101CE00002F4804210239FED167B062002920C9393
:101CF00008226423CDE91023022408900222042341
:101D000008A88DED0A7BCDE9122302990E940CF000
:101D1000EFFD08B172B6FEE70F220346CDE90324BA
:101D20004FF4A0554FF4805203A80321CDE90535A7
:101D300007920CF0F5FF08B172B6FEE715B030BDA2
:101D40000100000001000000003802400070004067
:101D50002DE9804800249FB00CF03AFAFFF7A0FF6D
:101D6000CDE91744CDE919448A4D0C941B942B6B93
:101D7000894843F010032B632B6B03F010030C9383
:101D80000C9B0D942B6B43F004032B632B6B03F024
:101D900004030D930D9B0E942B6B43F080032B6378
:101DA0002B6B03F080030E930E9B0F942B6B012281
:101DB00013432B632B6B13400F930F9B10942B6BD0
:101DC00043F002032B632B6B03F0020310935621A5
:101DD000109B0CF089FD0122114670480CF084FD27
:101DE00022466E4828210CF07FFD012618236C48FE
:101DF000199617A90227CDE917340CF04DFC1623CC
:101E00006548179317A9CDE918641A970CF044FC9C
:101E100040236148179317A9CDE918671A970CF06A
:101E20003BFC29235D48179317A903231A93CDE997
:101E300018640CF031FC10235848199417A9CDE907
:101E400017340CF029FC0B942B6B43F480032B63A9
:101E50002B6B03F4800322460B9321463B200B9B04
:101E60000CF006FA3B200CF041FA4E484E4A4FF473
:101E70008273C0E900234FF400720A23C0E90244D0
:101E8000C0E90444C0E90624C0E90844C0E90A43A3
:101E90000DF0EAFF08B172B6FEE7444C44491B90CE
:101EA0007F220346CDE91700CDE91900C4E90010EF
:101EB0001290A2602046FF22C4E90323C4E905333F
:101EC0000DF06CF8054608B172B6FEE701462046F3
:101ED0000DF06EFE43F2F227B8420FD043F2130327
:101EE0002A4617A92046CDE91A55ADF85C308DF881
:101EF0005E500DF0C9F888B172B6FEE712AE2B48FD
:101F00004FF400210DF05AFE30B928480DF030FE94
:101F10000346A0B172B6FEE772B6FEE712AE254BDD
:101F200012930246314620460DF078FB014608B177
:101F300072B6FEE73A4620460DF034FEDFE71E4C4F
:101F40001E4A1D90CDE91700CDE91900CDE91B000F
:101F5000C4E901002260204641F28732E260236139
:101F6000A3610EF09BF908B172B6FEE720460EF0B1
:101F700027FA08B172B6FEE7CDE9180060230246E1
:101F80001B9017A9204617930EF01AFB0546B8B10F
:101F900072B6FEE700380240000002400004024032
:101FA00000100240500300200030014030030020A8
:101FB000002800400101051AA80300200048014044
:101FC000204600F0C5FC294620460EF089FA236819
:101FD000A648DA6A5A63402101220CF085FC2A46A1
:101FE0003146A3480DF0DEFA2A460AA9A0480DF0B2
:101FF00089FD13980EF0F4FBF021084609F0F8F97A
:102000009C4B1B78002B00F0E7829A1F042A00F2F9
:10201000F982994BDFF8AC9204931A4699F8003094
:10202000DFF8A4B2D05C954B0293DFF8A082944B0A
:10203000039309F0F9F904F0F3F903F0E7F907F075
:10204000E1F804F089FD8F4D0CF0E8F88E4B1B6829
:10205000C01AB0F5C87F00F2B48010218B480CF094
:102060003DFC0821059089480CF038FC06460CF030
:10207000D5F8804B93F800A0AAF11103DBB2044617
:102080000693002E4AD1824B1A78012A00F0A380D1
:10209000804B1B784BB1804B1A7832B97F4B1B6851
:1020A000E31AB3F5487F00F2A582059B002B6ED1A1
:1020B0007B4B1A78012A00F09980794B059A1A70A7
:1020C000734B1E706B4B1B78242B00F27583DFE87B
:1020D00013F056024C02420239022F0227021F025D
:1020E0000D02FB01EA01DB01D701D301CC01C801DC
:1020F000C401BD01B601AF01A80135012F012901BD
:1021000023011D01170111010B010501FF00C6008C
:10211000C000AE00A800A2009C009900012EC4D10E
:102120005B4B1F78002FC0D15E4B1B68C31A952BE9
:10213000BBD95C4B1860574B1F70584B1B6832461D
:10214000C31A4021494807930CF0CEFB079BB3F517
:10215000487F40F236822A78002A40F01A8217A976
:10216000434807920DF01EFA079A414811A90DF055
:10217000C9FC4D4A9DF85C3013704C4A9DF85D30A7
:1021800013704B4A9DF85E302E7013708DE7059BDF
:10219000012B92D1424B1B78002B8ED145490A78F6
:1021A000002A8AD00B70444B1B68E31AB3F52F7FCB
:1021B0002B7840F25F82002B7FF47FAFFFF7B4FCF7
:1021C0007BE70CF02BF8304B3C4A1860137883F017
:1021D0000103137041E7314B18602E4B23481A70EE
:1021E0002D4B40211E700CF07FFB51E734490B68EA
:1021F000E31A952B7FF661AF2E4B0C601A702E4BB5
:102200001C605AE703F028F81EE701F069F80A207D
:102210000CF00AF818E706F00BF801200CF004F8AF
:1022200012E705F003FC01200BF0FEFF0CE717AAF4
:1022300011A90DF1270008F09FFF9DF827009DF8D8
:102240005C209DF8441008F0BBFB01200BF0ECFF74
:10225000FAE600F023FD01200BF0E6FFF4E605F0BE
:10226000E5FD01200BF0E0FFEEE600BF00000240BC
:1022700030030020BC020020F4710108FC71010849
:10228000EC710108C7020020C002002000100240CB
:1022900006000020FC0300200404002008040020A5
:1022A0000500002000040020C4020020C502002018
:1022B000C6020020F1030020F803002000000020E7
:1022C000F403002002000020030000200100002091
:1022D00001F030F901200BF0A7FFB5E607F0B8FBDD
:1022E00001200BF0A1FFAFE600F00CFC01200BF089
:1022F0009BFFA9E601F01EFA01200BF095FFA3E673
:1023000003F0DEFF01200BF08FFF9DE604F012FBCF
:1023100001200BF089FF97E605F06AF901200BF028
:1023200083FF91E606F0C2FB01200BF07DFF8BE6F8
:1023300007F0C4FF01200BF077FF85E6BB4B1C784C
:10234000002C45D00BF06AFFB94A1368C31A312B31
:10235000F0D9B84B10601B78B74A52F82330059378
:102360000024122748F2B54A4346059A04F1480171
:1023700009B2002607FB042846F3CC02079318F89D
:1023800002C00691B2B2802302F0070023FA00F0E7
:102390001CEA000F02F1300210B206F1010614BF70
:1023A0005246002209F046F8902EDDE90613E3D1EB
:1023B0000134602CD9D1984609F034F89D4A13783D
:1023C0000133DBB2092B84BF9A4A00231370B1E7B3
:1023D000984B964A1C70012313700BF01FFF944B0F
:1023E0001860204609F028F84FF6FF730093224644
:1023F000924BAF21172009F059FFAA234FF6E07244
:1024000000921946E6220A2009F03EF878214FF69C
:102410001F0375220846009409F0F4FB09F002F846
:1024200090E7002004F0F0FB25200BF0FDFE0BE60A
:10243000012004F043F825200BF0F6FE04E600200E
:1024400004F03CF825200BF0EFFEFDE5002006F03F
:1024500041FF25200BF0E8FEF6E5012007F0ECF83F
:10246000F2E5002007F0E8F8EEE5002002F0F6FFC4
:1024700025200BF0D9FEE7E5012002F0C9F8E3E5DD
:10248000002002F0C5F8DFE517AA11A90DF1270019
:10249000FFF704FB9DF85C209DF844109DF8270091
:1024A00001F00AFED0E517AA11A90DF12700FFF7E8
:1024B000F5FA01239DF85C209DF844109DF8270053
:1024C000009301F029FBBFE517AA11A90DF1270020
:1024D000FFF7E4FA002300939DF85C209DF8441078
:1024E0009DF82700012301F017FBADE517AA11A9FC
:1024F0000DF12700FFF7D2FA012300939DF85C202D
:102500009DF844109DF82700002301F005FB9BE592
:1025100017AA11A90DF12700FFF7C0FA0023C9E798
:1025200047486E22192106F01FFBFFF7FDFA8BE5E5
:102530004FF6FF7008F080FF08F074FF64200BF086
:1025400073FE81E51F2008F077FF08F06BFF642021
:102550000BF06AFE78E54FF4FC6008F06DFF08F0C0
:1025600061FF64200BF060FE6EE54FF4784008F0E8
:1025700063FF08F057FF64200BF056FE64E548F255
:10258000B54008F059FF08F04DFF64200BF04CFEF9
:102590005AE52C4B2C481B781B97CDE917778DF803
:1025A0005C302A4B1B788DF85D30294B3A461B78FE
:1025B0008DF85E3017A9CDE919770CF065FD2F7005
:1025C00073E52B78002B69D0012B64D0022B06BF5A
:1025D00003232B702E7068E51E4B04931E4B029351
:1025E0001E4BDFF88490DFF884B0DFF8848003931B
:1025F0000A201EE51A4840210CF076F9194A0123F9
:10260000137052E5113B012B66D9144BDFF8608043
:1026100003931A4698F80030DFF84C90D05C0D4BCD
:1026200004930D4BDFF844B0029302E52903002028
:102630002C0300202803002004720108C87101083F
:1026400098710108C402002030030020C502002058
:10265000C6020020F4710108FC710108EC71010848
:1026600000000240040400200200002003000020BB
:1026700001000020002B4AD0012B3ED0022B0CBFC2
:102680004F48504803783C220133B3FBF2F102FB80
:102690001133037011E502232B7006E5069B012B15
:1026A0005AD9BAF1100F54D0474B1B78002B3FF486
:1026B000FCAC9A1F042A3BD899F800300133DBB2F6
:1026C000042B32D9002389F8003099F80030049A9D
:1026D000D05C08F0A9FEE8E43C4BDFF804B10293BB
:1026E0001A469BF80030DFF8FC90D05C384B04931E
:1026F000384BDFF8F48003939BE4374803781822C3
:102700000133B3FBF2F102FB11330370D5E4069BF6
:10271000012B2FD9BAF1100F29D02B4B1B78232B6B
:102720007FF44CAD00F0BAFDC7E489F80030CCE787
:10273000113B012B29D998F800300133DBB2052B6E
:1027400020D9002388F8003098F80030039AD05C34
:10275000BFE706F09DFDA8E420490B780322013372
:10276000B3FBF2F202EB42029B1A0B709DE406F0FF
:1027700071FDA2E4194B1B78C3B1012B13D003F0F8
:1027800089FE9AE488F80030DEE79BF800300133D8
:10279000DBB2042B0DD900238BF800309BF80030FE
:1027A000029AD05C95E703F065FE86E403F04AFEEA
:1027B00083E48BF80030F1E732200BF035FD43E481
:1027C000C5020020C6020020BC020020FC710108E6
:1027D000F4710108EC710108C4020020F00300202C
:1027E00003000020020000200100002072B6FEE776
:1027F00082B00C4B002100915A6C42F480425A6422
:102800005A6C02F480420092009A01911A6C42F0D4
:1028100080521A641B6C03F080530193019B02B039
:10282000704700BF0038024000B50F4A016885B00C
:1028300000239142CDE9013302D005B05DF804FBDD
:1028400002224FF480736846009203930CF006FB5B
:1028500030B9064B0122C3F83C2E05B05DF804FBED
:10286000FFF7C4FFF5E700BF002800400000474223
:1028700070B5264B026888B000249A42CDE9024424
:10288000CDE90444069401D008B070BD03F584334B
:1028900000945A6C1E4E42F480525A645A6C02F4F0
:1028A00080520092009A01941A6B42F001021A635E
:1028B0001B6B03F001030193A0220223CDE9022345
:1028C000032305930546019B1248052302A906939D
:1028D0000BF0E2FE104A74624FF0C063C6E90023B9
:1028E000304640224FF48063C6E90224C6E905441D
:1028F000C6E9074433610BF021FD18B9AE64B56336
:1029000008B070BDFFF772FFF8E700BF003001406C
:10291000C802002000000240586402400A4B0268CE
:102920009A4200D0704782B003F5704300220192B2
:102930005A6C42F480225A645B6C03F48023019346
:10294000019B02B0704700BF00480140000000003A
:1029500000B5154A016889B000239142CDE90233E0
:10296000CDE90433069302D009B05DF804FB02F50B
:1029700070420193136B0D4843F002031363136B12
:102980009FED077B03F00203019302A903238DED62
:10299000027B019A06930BF07FFE09B05DF804FB01
:1029A0000002000002000000004801400004024054
:1029B000FEE700BFFEE700BFFEE700BFFEE700BF87
:1029C000FEE700BF704700BF704700BF704700BF01
:1029D0000BF018BC01480BF089BD00BFC8020020F5
:1029E0000120704708B50EF0EBFF162303604FF08F
:1029F000FF3008BD08B50EF0E3FF16230360FEE7C5
:102A000070B5161E07DD0C468D19AFF3008004F873
:102A1000010BA542F9D1304670BD00BF70B5161E3E
:102A200007DD0C468D1914F8010BAFF30080AC42A2
:102A3000F9D1304670BD00BF4FF0FF30704700BF86
:102A40004FF400534B600020704700BF01207047D7
:102A5000002070470C490D4A0B6810B50C4C121B36
:102A60002BB11844904207D80860184610BD094B96
:102A70000B6018449042F7D90EF0A2FF0C230360BC
:102A80004FF0FF33184610BD0C0400200000022058
:102A90000004000060E10120034AD2F8883043F4CA
:102AA0007003C2F88830704700ED00E00F4B10B59E
:102AB00001221A700BF0B2FB0D4B0E4C02460020A7
:102AC0001A6008F0B9FC4FF0000C0B4884F800C005
:102AD0004FF0060C09490A4A80F800C04FF6B0735F
:102AE000BDE810400B80138008F09CBC100400204F
:102AF00014040020110400200C000020100000200D
:102B00000E0000202DE9F04F504B514C1D7883B042
:102B1000002D60D00BF082FB2368C31A312B02D842
:102B200003B0BDE8F08F4B4E2060B6F900004A4C70
:102B300000F157020025902312B23221009508F0CF
:102B400041FF46492278B1F9003045483380002AD8
:102B500058D102780132D2B20C330B2A1FB288BF8F
:102B60000622EF2F02700F809DB264DC3D4B40F2D5
:102B7000154101FB023A4FF000094FF0320880275F
:102B80000FFA88FB00240AEB090644F3CC03A0B239
:102B9000F35C00F0070C27FA0CFC13EA0C03284442
:102BA00048F2B362594604BF1A46594600B201348E
:102BB00008F040FC582CE8D109F10B0940F215430C
:102BC00008F1010899451FFA88F8D9D103B0BDE88A
:102BD000F04F08F027BC01221A700BF01FFB0346D0
:102BE0002846236008F028FC1B491D4B0D70062267
:102BF0001A491A70174A4FF6B0730B80138008F009
:102C000011FC87E702780132D2B20C3B052A1FB2D1
:102C100086BF05702A4602700F8063379DB2A5DA21
:102C200000234FF6B07523700623DFF83CA0037035
:102C30000D8035809FE70123F52523700023DFF801
:102C400024A003700D80358095E700BF100400209C
:102C5000140400200E0000201104002010000020A9
:102C60000C0000203C720108BA8A010808B5084B24
:102C700001221A700BF0D2FA064B074A01460020D7
:102C80001870116008F0D8FBBDE8084008F0CABB16
:102C900018040020190400201C0400202DE9F0472E
:102CA000B94B1D7886B0002D3AD0B84C0BF0B6FA6F
:102CB0002368C31AB3F57A7F2ED3B54D20602B78E5
:102CC0000B2B00F24882DFE813F08F01EF00AD011B
:102CD000CE002C023B0177010C003A005E0095000B
:102CE000B2004FF0000847460FFA88F6002421B2E0
:102CF00000974FF6FF730A223046143408F082FF23
:102D0000B4F5827FF3D108F11408B8F5827FEBD1D6
:102D100008F088FB08232B70002006B0BDE8F08780
:102D200001221A700BF07AFA984C994B0246284609
:102D300022601D7008F080FB08F074FBB6E70020ED
:102D400008F07AFB934E0024A3B2DA0006EA0320CF
:102D500002F4FC621043C4F3C401C3F177020143DF
:102D600077331BB212B289B2CDE90131009311461B
:102D70000534772008F03EFE782CE5D108F052FBB0
:102D800009232B70C8E7002008F056FBDFF80492F7
:102D90004FF0EE08A624E700C8F1EE0207F4FC6746
:102DA0000FFA88F612B247EAD403114602931FFACB
:102DB00084FA33467720CDE90066049209EA0A2AAC
:102DC00008F03AFE049A009647EA0A07323CCDE939
:102DD0000167334611467720E4B208F00BFEA8F1F4
:102DE00005085A2C1FFA88F8D5D108F01BFB0A23D6
:102DF0002B7091E7002008F01FFB664E0024611045
:102E000006EA0422C1F1770123B244F3CF0009B2EC
:102E100092B2CDE9000206341A46084601F00CFFD2
:102E2000F02CECD108F0FEFA0B232B7074E7002095
:102E300008F002FBF0246110E200C1F1770123B237
:102E400044F3CF0009B202F4FC62CDE90002063C73
:102E50001A46084602F068F8122CECD108F0E2FAA3
:102E600000232B7058E7002008F0E6FA00244FF406
:102E7000784623B20096EF2219460020053408F068
:102E800003FBF02CF5D100241F2622B20096EF237D
:102E900000211046053408F0F7FAF02CF5D108F0BF
:102EA000C1FA04232B7037E7002008F0C5FA4FF66B
:102EB000FF7400221146384B0094104609F0F6F9D1
:102EC0000022364900914FF6E0730C21104609F0BC
:102ED0001FFA0022324900914FF47843182110461E
:102EE00009F016FA00222F4900914FF4FC632821C3
:102EF000104609F00DFA00222B4900912346342197
:102F0000104609F005FA0022284900912346402185
:102F1000104609F0FDF900222549009123464C2175
:102F2000104609F0F5F90022224800902346582166
:102F3000104609F0EDF908F075FA02232B70EBE664
:102F4000002008F079FAF0244FF6E0774FF61F06DC
:102F5000C4F34F03C3F17701773309B21BB21A46AA
:102F6000084600970593049108F02CFD059B0499F1
:102F700000961A46084608F0FFFC063CE8D108F027
:102F800051FA06232B70C7E6180400201C04002009
:102F90001904002000F8FFFF50A7010860A70108EE
:102FA00068A7010874A701087CA701088CA701087D
:102FB000A8A70108C4A70108002008F03DFA0A27C5
:102FC0003EB20A2421B24FF61F030A2230461434BF
:102FD00008F090FFFA2CF5D11437FA2FF0D108F051
:102FE00021FA07232B7097E6002008F025FA08F055
:102FF00019FA4FF4784008F01FFA08F013FA4FF46A
:10300000FC6008F019FA08F00DFA1F2008F014FA15
:1030100008F008FA002008F00FFA08F003FA01237C
:103020002B7079E6002008F007FA002440F2FF76C2
:10303000002122B20096EF230846063408F024FA55
:10304000F02CF5D1002440F2FF76002123B2009647
:10305000EF220846063408F017FAF02CF5D108F0F4
:10306000E1F9002008F0E8F9002440F2FF76EF23B0
:1030700022B2009600211846063408F005FAF02C1A
:10308000F5D1002440F2FF76002223B200961146CB
:10309000EF20063408F0F8F9F02CF5D108F0C2F969
:1030A000002008F0C9F9002440F2FF76002322B284
:1030B0000096EF211846063408F0E6F9F02CF5D119
:1030C000002440F2FF76EF2223B200961146002042
:1030D000063408F0D9F9F02CF5D108F0A3F9002056
:1030E00008F0AAF9002440F2FF76EF2122B2009600
:1030F00000230846063408F0C7F9F02CF5D1002467
:1031000040F2FF76EF2123B20096002208460634F3
:1031100008F0BAF9F02CF5D108F084F903232B70EC
:10312000FAE5002008F088F902244FF4FC66C4F3A5
:103130004F03C3F17801783309B21BB200961A46E7
:103140000846063408F018FCF22CF0D108F06AF9B1
:1031500005232B70E0E500232B70DDE52DE9F84316
:103160009FED310ADFF8E890DFF8E8802F4F304E0E
:103170002DED088B88259FED2F8A9FED2FAADFED7F
:103180002F8ADFED2F9A9FED2FBADFED2FAA0024B3
:1031900014E0B4F5B47F40D02C2D3ED007EE905A09
:1031A000B8EEE79A29EE2A9AB0EE490A12F0ACF886
:1031B000B0EE408AB0EE490A12F0EAF809EB84005A
:1031C00008EB840107EB840206EB8403B0EE686A27
:1031D000F0EE686AB0EE687AF0EE687AA8EE0A6AF5
:1031E0000135B5F5B47FE0EE0A6A04F10104A8EEFA
:1031F000297AE0EE297AA0EC016AE1EC016AA2ECFE
:10320000017AE3EC017AC4D1B4F5B47FB0EE4B0A95
:103210004FF00005B7EE008AD8D10C4B01221A708E
:10322000BDEC088BBDE8F88326D5313FC4090020EA
:1032300004150020A32638BF000098420000F04289
:10324000000060420000000034FA8E3CA81A002002
:1032500024040020640F002008B50B4B1B787BB1C1
:103260000A4A0B4B11780B4A03EB8103D3ED007A2A
:10327000094BF8EEE77A01211170C3ED007A08BD21
:10328000FFF76CFFECE700BFA81A00202004002025
:10329000F42B050821040020A41A00200C4A1378FE
:1032A0000133DBB2012B137007D90023DFED097A5C
:1032B0001370094BC3ED007A7047084A02EB830391
:1032C000D3ED007A044BF8EEE77AC3ED007A70474D
:1032D0002004002000000000A41A0020F42B0508A0
:1032E0002DE9F047774C237888B0002B00F0D4808C
:1032F000754B764A1B78DFF8049202EB8302D2ED1D
:10330000006AD9ED007AF8EEE66A7149714A01EB7C
:10331000830192ED006A91ED007A77EE867AB8EE3D
:10332000C77AC9ED007AF4EEC77AF1EE10FA06DB3F
:103330004FF03F41F0EE477A89ED007A1160F4EEEC
:10334000E76AF1EE10FA06DB4FF07C51F0EE667A98
:10335000C9ED006A116077EEE67A9FED5F6A5F491A
:1033600067EE867A37EE667A9FED5D6A51F8233014
:10337000C7EE876A40F20B120027A3F1020876EE2F
:10338000867AFDEEE77A17EE90AA9245A8BF92469C
:103390002AEAEA7A3EB24546002420B235F8022FE6
:1033A0003146013408F046F8F02CF6D10137F02F01
:1033B00008F5F078EED1D9ED007A4A4A4A4DFDEE93
:1033C000E77A102117EE903A0DEB01000EF0ACF900
:1033D00004A8FCF74DFF6FF0090303FB00F0002485
:1033E000783004AB05EB8A0500940322722100B209
:1033F00008F05CFF95ED006A3C4D3D490AF104037D
:1034000040F20B129342A8BF134605EB8A05D5ED97
:10341000006A384A01EB830595ED007A02EB8303DD
:10342000D3ED007ABDEEC77AAAF1040020EAE0707D
:1034300017EE103AFDEEE77A01EB800102EB800215
:1034400091ED005AD2ED005A1AB217EE903ABDEE45
:10345000C66AFDEEE66ABDEEC55AFDEEE55A1BB240
:103460004FF47841CDE9012116EE900A15EE902A2D
:1034700016EE101A009315EE103A12B21BB209B2F2
:1034800000B208F0D9FA3B463A462146204609F0F8
:10349000DBF808B0BDE8F087174B1B787BB10A4B0F
:1034A0000A491B78DFF8549001EB8301D1ED007AD3
:1034B000F8EEE77A01222270F0EE676A25E7FFF75F
:1034C0004DFEECE72104002020040020F42B050829
:1034D000EC2B05081400002000808543E42B050830
:1034E00000000000E0A70108640F00202404002071
:1034F00004150020C4090020A81A0020A41A0020E6
:10350000094B10B501221A700AF088FE0749084BD2
:103510000446002248F2B5400C601A6007F08CFFA8
:10352000BDE8104007F07EBFB01A0020B41A00209A
:10353000AC1A002030B52DED048B5E4B1D7885B0A4
:10354000002D00F0A6805C4C0AF068FE2368C31AC8
:10355000312B03D805B0BDEC048B30BD2821574D6D
:10356000DFED579A9FED578A9FED579AC82348F28F
:10357000B54200921A462060084608F023FA2C68EB
:10358000A4F15A0308EE903AF8EEE88A68EEA98AA8
:10359000B0EE680A11F0B8FEF0EE407AB0EE680ABC
:1035A000F0EE678A11F0F4FEF0EE487AE8EE897AE0
:1035B00028224FF4FC63B0EE487AA0EE097AFDEEC3
:1035C000E77A17EE900AFDEEC77A104417EE901ACC
:1035D000114400B209B2CDE9020108F08BFCDDE92B
:1035E00002010A224FF6FF7308F084FC04F15A032B
:1035F00008EE903AF8EEE88A002468EEA98AB0EE68
:10360000680A11F081FEF0EE407AB0EE680AF0EE42
:10361000678A11F0BDFEF0EE487AE8EE897A28223A
:103620004FF6FF73A0EE098AFDEEE77A17EE900AD7
:10363000FDEEC87A104417EE901A114400B209B298
:10364000CDE9020108F056FCDDE902014FF4FC630C
:103650000A2208F04FFC7821084600944FF6FF73C9
:10366000502208F0CFFA782100944FF4FC634F22E7
:10367000084608F0C7FA2B680333B3F5B47FB8BF28
:103680001C462C6005B0BDEC048BBDE8304007F053
:10369000C9BE01221A700AF0C1FD074C074B024651
:1036A00048F2B54022601D6007F0C6FE07F0BAFE82
:1036B0004AE700BFB01A0020B41A0020AC1A00205C
:1036C00035FA8E3C0000A0420000204238B5104B75
:1036D000104C114D01221A700AF0A0FD0F4A10493A
:1036E0001060104A4FF0FF30002308601F21236054
:1036F00011700D4C0D490E4A2B8048F2B5402370D5
:103700000B70137007F098FEBDE8384007F08ABED2
:10371000B91A0020C41A0020C01A0020BC1A0020C8
:10372000180000201C000020C21A0020B81A002037
:10373000C81A00202DE9F04F2DED088BC64B1C78E0
:1037400085B064B3C54D0AF069FD2B68C31A042B1C
:1037500004D805B0BDEC088BBDE8F08FDFF804B3EA
:10376000BF49DBF800202860002A1346B8BFD31CED
:103770009B1002EB420AC3F178030A784FEA4A0A27
:10378000012BB8BF0123D046052A00F2A681DFE84D
:1037900012F02D01450113014E003A0024000122D0
:1037A0001A700AF03BFDAF4BAC4D1C60AE4BAF49FD
:1037B00028604FF0FF321A60AD4BAE4A0C801F20DC
:1037C000AD491870A64B0C7048F2B54014701C70CF
:1037D00007F032FE07F026FEB5E7A6480278013A68
:1037E000D2B2FF2A027000F06981A34991F80090DB
:1037F0009F4909784FEA491949EAC12949EA02096A
:103800001FFA89F926E09A4802780132D2B2202ABA
:10381000027000F0458198499648097890F8009028
:1038200049EA411949EAC2291FFA89F912E0924886
:103830000278013AD2B2FF2A027000F023818C494B
:103840008C48097890F8009049EAC12949EA421960
:103850001FFA89F907EE903A033BB8EEE7AA07EEA4
:10386000903ADFED86BA9FED868AF8EEE79A0AF184
:10387000070AA8F15A0309EE103AB8EEC99AA8F15E
:10388000530329EE2B9A08EE903AB0EE490A11F054
:103890003BFDF0EE407AB0EE490AB0EE679A11F0C7
:1038A00077FDF0EE486AE9EE0A6A08F10608F0EEE4
:1038B000407AB0EE487AA7EE8A7AFDEEE66AF8EE34
:1038C000E88AB0EE48BA16EE903AA7EEA9BA1CB252
:1038D000FDEEC77A68EEAB8A17EE903AB0EE680A52
:1038E0001DB211F011FDF0EE48AAE9EE29AAB0EEE2
:1038F000409AB0EE680A11F04BFDB0EE487AA9EE9E
:10390000297A2246F0EE487AE0EE297ABDEEC77AAF
:10391000FDEEE77A17EE103AF0EE488AE9EE0A8AF1
:103920001EB20096BDEECBBAFDEEEAAAB0EE489A02
:1039300017EE903AA0EE0A9A1FB2CDE901791BEE7C
:10394000101A1AEE900A2B4609B200B208F074F869
:10395000BDEEC97AFDEEE87A17EE103A1AB217EE0C
:10396000903A1BB2CDE90129009332463B462946E5
:10397000204608F061F8C2453FF77BAF3A483B4923
:10398000DBF8002003681A440B88CBF800200133D1
:103990009BB2BF2B88BF0023002A0B8052DBB2F5FD
:1039A000957FC4BF4FF0FF33036005B0BDEC088BBB
:1039B000BDE8F04F07F036BD2E4802780132D2B292
:1039C000202A02707FF411AF2B4A92F80090284A07
:1039D00012784FEA491949EAC2291F2249F01F0902
:1039E000027003221FFA89F90A7033E7224802782D
:1039F0000132D2B2402A02707FF421AF1C4A1D4C22
:103A0000127894F8009049EAC2293F2249F4FC69EF
:103A1000027001221FFA89F90A701BE71448027824
:103A2000013AD2B2FF2A02707FF4F5AE124A114C6D
:103A3000127894F8009049EA42190022027002229A
:103A40000A7007E70123036005B0BDEC088BBDE8F1
:103A5000F04F07F0E7BC00BFB91A0020BC1A0020E5
:103A6000C81A0020C41A002018000020C01A002024
:103A70001C000020B81A0020C21A002035FA8E3C23
:103A80000000F0421B4A1C4C127894F8009049EA5E
:103A9000C2290022027004221FFA89F90A70D9E6AD
:103AA000164A154C127894F8009049EA42191F22E0
:103AB0000270052249F478490A70CBE60F4A92F861
:103AC00000900C4A12784FEA491949EAC2290022AB
:103AD0001FFA89F902700A70BCE6084D064C0548C9
:103AE00000220A702A7022701F2202704FF4784957
:103AF000B0E600BF1C000020B81A0020C21A002047
:103B00000039034A034B107018BF01211970704728
:103B1000CA1A00201D0000202DE9F04F2DED068B64
:103B20008BB0002B9DF86840DFED859A9FED859A5C
:103B3000854F4FF6FF73CDE906400DBF9A464FF013
:103B4000000A184600204FF61F0308BF4FF4FC631D
:103B50000AEE103A0D24CDE90812059007F06CFC2E
:103B600053460FF2D419D9E90089A2469FED770A8E
:103B7000B7EE008A002540F6880B00261C4623E09D
:103B80005B458CBF4FF0060A4FF00A0A07EE905AC9
:103B9000F8EE677A17EE900AFCF7D6FC42464B46E1
:103BA000FCF72AFD32463B46FCF750FEFDF71CF8B9
:103BB00000EE100A08EE900A11F0A6FBB0EE408A63
:103BC000B0EE680A11F0E4FBCAF17703DBB207EE4E
:103BD000903AF8EEE77AF0EE496AB0EE496AA7EE5D
:103BE000806A0635ADB2E7EE886A0094B0EE497A95
:103BF000F0EE497AA0EE297AE8EE297ABDEEC77A8E
:103C0000FDEEE66ABDEEC66AFDEEE77A16EE103A04
:103C100016EE902A17EE101A17EE900A1BB212B287
:103C200009B200B207F012FDC5EB0523C5EBC303D3
:103C300003EB830305EB0512C5EB430302EB022202
:103C4000C3F34E01524241EAC331C2F34E0343EA89
:103C5000C233B5F5B77F89B29BB205D0B1F5367FD7
:103C60008ED84FF00D0A91E7394B009401221E21A6
:103C7000A52008F01BFB374B009401223F21C820F0
:103C800008F014FB344B009403226A21CF2008F083
:103C90000DFB324B00940122A021C82008F006FB46
:103CA0002F4B00940122C121A52008F0FFFA2D4BD3
:103CB00000940322C321702008F0F8FA2A4B0094E4
:103CC0000122C121412008F0F1FA284B0094012281
:103CD000A021202008F0EAFA254B009403226A2153
:103CE000112008F0E3FA234B009401223F21202009
:103CF00008F0DCFA204B009401221E21412008F03C
:103D0000D5FA1E4B009403220E216A2008F0CEFA49
:103D10001B4B1B78012BA24600F07281022B33D182
:103D2000184B1B78002B40F07781059D05942346A6
:103D300038E000BFAFF30080F1D4C853FB21094045
:103D40000000EE420000F0420080664000000000EB
:103D5000FC2B0508002C0508042C0508082C050878
:103D60000C2C0508102C05087C710108142C050882
:103D700074710108182C05081C2C0508202C050856
:103D8000CA1A00201D000020032B40F04A81AA4BD4
:103D900005991A784FF6E073002A18BF1946059165
:103DA00025462346A54C079E0094012250210196EA
:103DB0004B2008F0ADFAA24BCDF800A00122502113
:103DC00008F074FA2B46089D9FED9E8ADFED9E9ABF
:103DD0009FED9E9ACDE900450122502108F098FA06
:103DE000974BCDF800A00122502108F05FFA009413
:103DF000099C059B01940122502108F089FA9448FE
:103E0000A0FB0430C00805EB45035A3800EB430023
:103E100007EE900AF8EEE77A17EE900AFCF794FBAB
:103E200083A3D3E90023FCF7E7FB8A4B0022FCF7CE
:103E30000DFDFCF7D9FE00EE100A08EE900A11F015
:103E400063FAF0EE407AB0EE680AF0EE488AE7EEE8
:103E5000A98A11F09DFAF0EE487AE0EE297A022361
:103E60000193FDEEE88AFDEEE77A18EE902A17EE50
:103E7000903A782112B208461BB2CDF800A008F0A3
:103E80008BF86808C6EB06135A3800EB430007EEC0
:103E9000900AF8EEE77A17EE900AFCF755FB64A358
:103EA000D3E90023FCF7A8FB6A4B0022FCF7CEFC09
:103EB000FCF79AFE00EE100A08EE900A11F024FAC0
:103EC000F0EE407AB0EE680AF0EE488AE7EE898AB2
:103ED00011F05EFAA0EE098A04230193FDEEE88A50
:103EE000BDEEC88A18EE903A1AB218EE103A782150
:103EF000CDF800A01BB2084608F04EF8002C6DD09B
:103F0000069A04EB44035B00002A6CD0A3F1540A28
:103F10005A3B47A7D7E900679FED4F8A9FED4F9A1D
:103F2000DFED488A4B4D1AEE10BA0FFA83F9BFEE57
:103F3000000A0FFA8AFA6FF05908002425E008F108
:103F400006080FFA88F808F0AFF8C8453CDC07EE21
:103F5000908AF8EEE77A17EE900AFCF7F5FA324607
:103F60003B46FCF749FB22462B46FCF76FFCFCF76F
:103F70003BFE00EE100A09EE900A11F0C5F9B0EE12
:103F8000408AB0EE690A11F003FAB0EE687AF0EEFA
:103F9000687AA0EE097AC1455B46E8EE097A4FF0EF
:103FA0000302BDEEC77AFDEEE77A8DED067ACDED20
:103FB000057ABDF91810BDF91400C0D1042208F02B
:103FC00073F8CA45D046C2DD07F02CFA25200BB0A5
:103FD000BDEC068BBDE8F04F0AF026B9069A4FF407
:103FE000B473002A92D1022202921AEE102A78218A
:103FF000CDE900320846069B772208F069F8E3E72E
:104000000D4B05991A7805944FF6E073002A18BFF6
:1040100019460B462546C5E6234605944FF6E0753E
:10402000C0E6254623460594BCE600BFAFF30080FA
:10403000F1D4C853FB2109401D000020242C0508A1
:104040002C2C05080000F0420000C8420000484245
:10405000CDCCCCCC008066402EBD3BB30000EC4202
:1040600030B40C480C490D4A0D4D0E4C4FF0000C6D
:10407000782380F800C04FF6FF70088013800A484C
:104080000A490B4A2B802380038030BC0B801380AD
:10409000704700BFC91A00201E0000202800002021
:1040A0002000002024000020220000202600002004
:1040B0002A000020000000002DE9F04F2DED088BB4
:1040C000DB4BDC4C1D78247887B00AEE900A0BEEAF
:1040D000101A05949146002D00F06781DFF898834F
:1040E000059B23B9B8F90030994500F0548107EEDB
:1040F000909AB8EE679AF1EE086A29EE269A9FED3B
:10410000CE8ADFEDCE7ADFEDCE8AA8F80090B8EE49
:104110004B7A29EE088A0024A7EE268A4FF0040B7A
:10412000DFF83C93DFF83CA3DFF84883C54FC64E69
:10413000C64DB8EE6A7A68EE277AF3EE0E6AE7EEBD
:10414000267A77EEE87A17EE900AFCF7FDF9B6A327
:10415000D3E90023FCF750FA0022BD4BFCF776FBB5
:10416000FCF742FD78EE687A034617EE900A09EEF6
:10417000903AFCF7E9F9ACA3D3E90023FCF73CFA49
:104180000022B34BFCF762FBFCF72EFD79EE687A58
:10419000034617EE900A09EE103AFCF7D5F9A2A3F0
:1041A000D3E90023FCF728FAA94B0022FCF74EFBC9
:1041B000FCF71AFDB0EE690A08EE100A11F0A4F837
:1041C000B0EE40BAB0EE690A11F0E2F8F0EE40AAA3
:1041D000B0EE490A11F098F8B0EE40AAB0EE490AE4
:1041E00011F0D6F8F0EE409AB0EE480A11F08CF8D3
:1041F000B0EE409AB0EE480A11F0CAF8CDE9004B93
:1042000078210846B9F90030BAF90020B0EE408AAA
:1042100007F0C2FE02230094782101930846B8F902
:104220000030B7F9002007F0B7FE01230094782191
:1042300001930846B6F90030B5F9002007F0ACFE4E
:10424000782108464FF420432F2207F02DFF7821D4
:10425000084640F2FF732C2207F026FF782108461B
:1042600048F2B543292207F01FFF782108464FF690
:10427000E033262207F018FF782108464FF6FF7337
:10428000232207F011FF782108464FF61F03202252
:1042900007F00AFF782108461F231D2207F004FFBC
:1042A000782108464FF4FC631A2207F0FDFE7821BE
:1042B000084617224FF4784307F0F6FE782123468C
:1042C0000846142207F0F0FEDFED627A9FED626A85
:1042D000DFED625ACDF804B0B0EE675AAAEE065A86
:1042E00078214FF6E034F0EE676AB0EE677AEBEED5
:1042F000256AAAEEA57AF0EE675AE9EE865AB0EE84
:10430000676ABDEEC55AA9EE286A15EE100AFDEEE1
:10431000E55AE8EE287A3880FDEEE66A15EE900A56
:10432000BDEEC66A16EE903ABDEEC77AFDEEE77AAC
:10433000A8F8000016EE100A1AB217EE103A2880FC
:1043400017EE900A1BB2AAF80020A9F800303080BE
:104350000846009407F020FE0223CDE900437821AF
:104360000846B8F90030B7F9002007F015FE40F212
:10437000FF7478210120B6F90030B5F900200190D2
:104380000094084607F008FE782108464FF42043C1
:10439000062207F089FE07F045F8282007B0BDEC9B
:1043A000088BBDE8F04F09F03FBF28482C492D4F3E
:1043B000244EDFF8C4809FED2C8A9FED2CAA9FED40
:1043C000259ADFED2B9A012278241A70294A1E4B78
:1043D00004804FF6FF7B28463C8034800C8014809C
:1043E0001C80A8F800B007F027F822462146204696
:1043F0004FF4FC6307F058FE2146204672221F232B
:1044000007F052FE2B4621462046672207F04CFE5D
:1044100005A7D7E900670E4D6FF03B0ABFEE000A13
:1044200000244BE0AFF30080F1D4C853FB210940D6
:10443000C91A0020CA1A00208A88883CA6AAAA3D68
:104440000000B442240000202A00002028000020A0
:10445000008066400000F0420000A8420000784260
:1044600022000020200000202EBD3BB30000E442CB
:104470000000C842260000201E00002007EE90AA7F
:10448000F8EEE77A0AF11E0A17EE900AFCF75CF8DC
:1044900032463B46FCF7B0F822462B46FCF7D6F9ED
:1044A000FCF7A2FB00EE100A08EE900A10F02CFFB9
:1044B000B0EE408AB0EE680A10F06AFFB0EE496ACA
:1044C000A8EE296ACDF800B0F0EE497AB0EE497A4C
:1044D000F0EE496AA0EE0A7AE0EE296AE8EE0A7A7E
:1044E000BDEEC66AFDEEE77A16EE103ABDEEC77A6B
:1044F000FDEEE66A17EE101A17EE900A1AB216EEE3
:10450000903A09B21BB200B207F0A0F8BAF5877F63
:10451000B4D13DA7D7E900679FED378A9FED379A61
:10452000DFED378A374DBFEE000A4FF0000A002456
:104530002CE0BAF15A0F4BD0BAF1B40F48D0BAF50B
:10454000877F45D0BAF5B17FAAF1540047D007EE76
:10455000900AF8EEE77ADA4617EE900AFBF7F4FFD6
:1045600032463B46FCF748F822462B46FCF76EF9EC
:10457000FCF73AFB00EE100A09EE900A10F0C4FEB8
:10458000B0EE408AB0EE690A10F002FFF0EE687AF1
:10459000E8EE097A4FF6FF720AF1060BB0EE687A80
:1045A000A0EE097AFDEEE77ABDEEC77A17EE903AF3
:1045B00018B217EE103A19B2CDE9030106F03AFF2E
:1045C000DDE903014FF6FF730222BAF1000FB0D10B
:1045D00007F06AFDBAF5B17FAAF15400B7D178218E
:1045E0004FF6FF730322084607F05EFD06F01AFF40
:1045F00076E500BFAFF300802EBD3BB30000CC4298
:104600000000F04200806640F1D4C853FB2109400D
:104610002DE9F04F2DED028B8BB0031E04934FF666
:10462000FF7315BF184600204FF0000B9B4606F0A5
:1046300003FF9FED077B084D084FB0EE478AF0EE71
:10464000678A6FF008044FF05A0A002633E000BF73
:10465000CCCE72CFA57767BEFFFFEF3F00005E4074
:1046600007EE90AAF8EE677A17EE900AFBF76CFF58
:10467000E7A3D3E90023FBF7BFFFE74B0022FCF7DA
:10468000E5F8FCF7B1FAFBF75FFF41EC100B41ECEA
:10469000180B10F08DFDB0EE407AF0EE607AB0EEBF
:1046A000480AF0EE680AB0EE478AF0EE678A10F02A
:1046B000D3FD55EC104B0AEB4A0303EB031303EB5A
:1046C00003230AEB8303C3F38D02D90342EA833247
:1046D0009BB241EA530392B240F6CC418A420FF2B8
:1046E0001039D9E900899BB20BD941F6991293424E
:1046F0000FF20439D9E9008903D90FF20439D9E955
:10470000008942464B4620462946FBF775FF324654
:104710003B46FBF7BBFDFCF71FFA42464B460FFA40
:1047200080F851EC180BFBF767FF32463B46FBF76E
:10473000ADFDFCF711FA0346294620461DB2B2A38F
:10474000D3E90023FBF758FF32463B46FBF79EFDBB
:10475000FCF702FAACA3D3E90023044651EC180B92
:10476000FBF74AFF32463B46FBF790FDFCF7F4F9B6
:1047700024B243462A46214600B2CDF800B006F0E6
:1047800065FF0AF104031FFA83FABAF5E17F7FF4AB
:1047900067AF049B002B00F03682CDF800B09F4B32
:1047A00000220D21762007F081FDCDF800B09C4B52
:1047B00000221221962007F079FDCDF800B0994B28
:1047C00000222621B72007F071FDCDF800B0964BEE
:1047D00000224221CC2007F069FDCDF800B0934BB8
:1047E00000226221D82007F061FDCDF800B0904B87
:1047F00000228721D22007F059FDCDF800B08D4B63
:104800000022AA21C52007F051FDCDF800B08A4B47
:104810000022C521B12007F049FDCDF800B0874B3B
:104820000022D8218F2007F041FDCDF800B0844B45
:104830000022DD216F2007F039FDCDF800B0814B5B
:104840000022D821502007F031FDCDF800B07E4B7A
:104850000022C5212F2007F029FDCDF800B07B4BA9
:104860000022AA21192007F021FDCDF800B0784BD5
:10487000002287210D2007F019FDCDF800B0754BFF
:10488000002262210D2007F011FDCDF800B0724B1F
:1048900000224221192007F009FDCDF800B06F4B2E
:1048A000002226212E2007F001FDCDF800B06C4B30
:1048B00000221221502007F0F9FCCDF800B0694B1E
:1048C00001222421742007F0F1FCCDF800B0664BE2
:1048D0000122BD21742007F0E9FCCDF800B0634B44
:1048E00001227121252007F0E1FCCDF800B0604BDA
:1048F00001227121C12007F0D9FC78215B465922A1
:10490000084607F0E9F94FF4B471002003F01AF8F3
:1049100007EE900AF8EEE77A064617EE900AFBF7E4
:1049200013FE3BA3D3E90023FBF766FE3A4B0022BC
:10493000FBF78CFFFCF758F9FBF706FE41EC100B78
:1049400041EC180B10F034FCB0EE407AF0EE607AD7
:10495000B0EE480AF0EE680A8DED047B10F07CFCA6
:1049600006F1B40007EE900AF8EEE77A5BEC10ABC4
:1049700017EE900AFBF7E8FD25A3D3E90023FBF728
:104980003BFE254B0022FBF761FFFCF72DF9FBF7FF
:10499000DBFD41EC100B41EC180B10F009FCB0EE04
:1049A000407AF0EE607AB0EE480AF0EE680A8DEDDB
:1049B000067B10F051FC06F15A0007EE900AF8EE63
:1049C000E77A8DED080B17EE900AFBF7BDFD10A3FB
:1049D000D3E90023FBF710FE0F4B0022FBF736FF55
:1049E000FCF702F9FBF7B0FD41EC100B42E000BF11
:1049F0000000000000C05A400000000000C05B4002
:104A00000000000000C05C400000000000C05D40ED
:104A1000F1D4C853FB21094000806640302C0508C2
:104A2000342C0508382C05083C2C0508402C0508BA
:104A3000442C0508482C05084C2C0508502C05086A
:104A4000542C0508582C05085C2C0508602C05081A
:104A5000642C0508682C05086C2C0508702C0508CA
:104A6000742C0508782C05087C2C0508802C05087A
:104A7000842C050841EC180B10F09AFBB0EE407A3C
:104A8000F0EE607AB0EE480AF0EE680A55EC174B8B
:104A900010F0E2FB06F5877007EE900AF8EEE77A71
:104AA00059EC108B17EE900AFBF74EFD60A3D3E98B
:104AB0000023FBF7A1FD5A4B0022FBF7C7FEFCF7D2
:104AC00093F8FBF741FD41EC100B41EC180B10F093
:104AD0006FFBB0EE407AF0EE607AB0EE480AF0EE8E
:104AE000680A57EC176B10F0B7FB4E4B204629466F
:104AF000002255EC104BFBF77FFD4B4B0022FBF7E0
:104B0000C5FBFCF729F803464946404600220FFA48
:104B100083F8444BFBF770FD434B0022FBF7B6FBD9
:104B2000FCF71AF803463946304600221EB23D4BC8
:104B3000FBF762FD3C4B0022FBF7A8FBFCF70CF8EF
:104B400003462946204600221CB2364BFBF754FD93
:104B5000354B0022FBF79AFBFBF7FEFF334B054674
:104B6000594650460022FBF747FD2F4B0022FBF72A
:104B70008DFBFBF7F1FF2D4B07460022DDE9040119
:104B8000FBF73AFD284B0022FBF780FBFBF7E4FF25
:104B90002DB23FB24FF47843CDE900453946029338
:104BA0004246334600B206F047FFDDE908011F4BDD
:104BB0000022FBF721FD1C4B0022FBF767FBFBF7F4
:104BC000CBFF1A4B07460022DDE90601FBF714FD77
:104BD000154B0022FBF75AFBFBF7BEFF3FB20094D8
:104BE0001F2400B23346424639460195029406F02E
:104BF00023FF06F017FC25200BB0BDEC028BBDE8AF
:104C0000F04F09F011BB782108465B46772207F088
:104C100063F878225B461146104607F05DF8BCE564
:104C2000008066400000344000005E4000005940B3
:104C3000F1D4C853FB2109402DE9F04F8BB0002A75
:104C40009946BDF85450BDF9503040F39980B9F100
:104C5000000F40F395804A4504461046A8BF4846D9
:104C6000401023EAE3739842A8BF1846A3B203F1A9
:104C7000FF3887B290441FFA88F83B44A8EB070C32
:104C80008346089018B29BB204931FFA8CF30FFA74
:104C90008CF28EB2009503930B46CDE9050206F027
:104CA000F3FB731E99440FFA89F31FFA89F9A9EBF4
:104CB0000709DDE905021946009506F0E5FB3E44CB
:104CC0001FFA89F231B20FFA89F300950592204656
:104CD00022460793069106F0D7FB0FFA88F2DDE92A
:104CE00006130095104606F0CFFBC7EBC7335B00F9
:104CF0001AB2C7F101031BB2BA46B6B22F460692EA
:104D00005D460993079298464FF00009D346049BED
:104D10001FFA89F4A3EB0A00311B3A4609B200B22C
:104D200006F088FB049BA6EB0A01181B09B200B22F
:104D30003A4606F07FFB079B991C630018FA81F046
:104D4000033308EB4404B8F1000F0AF1FF3C0344BD
:104D500004F1030409F1010915DB0FFA8CF50FFAD0
:104D600089F00AB2A84207920FFA83F811DC1FFA01
:104D700085FACCE733B299450FFA84F880F2A08027
:104D80000BB0BDE8F08F0FFA89F39D420FFA84F85B
:104D9000BDDA3D465F46DDE908B8069B0793BDF8DE
:104DA00020A03B464FF000092F465D46B3461E4605
:104DB000039B1FFA89F41819ABEB0A013A4609B2B2
:104DC00000B206F037FB039BABEB040103EB0A00D8
:104DD00009B200B23A4606F02DFB079B991C63000E
:104DE00018FA81F0033308EB4404B8F1000F0AF11C
:104DF000FF3C034404F1030409F101090CDB0FFA41
:104E00008CF50FFA89F00AB2A84207920FFA83F8DC
:104E100008DC1FFA85FACBE70FFA89F39D420FFAF7
:104E200084F8C5DA3D46DDF818A0BDF82090374675
:104E3000DDE908B63B464FF000082F4655469A4636
:104E4000059B039A1FFA88F403EB0901101909B2B4
:104E50003A4600B206F0EEFA039A059B02EB09000F
:104E6000191909B200B23A4606F0E4FA6300A91C27
:104E700016FA81F0033306EB4404002E09F1FF3CDF
:104E8000034404F1030408F101080ADB0FFA8CFB68
:104E90000FFA88F083450DB21EB207DB1FFA8BF9BB
:104EA000CEE70FFA88F39B4526B2C9DA3D46DDE925
:104EB00008985746DDE904AB3B4600262F461D46C1
:104EC000B4B20BEB0401AAEB05003A4609B200B2FA
:104ED00006F0B0FAAAEB04000BEB050109B200B230
:104EE0003A4606F0A7FA069B991C630018FA81FC63
:104EF000033308EB4404B8F1000F05F1FF306344BD
:104F000004F1030406F10106FFF634AF0FFA80F94D
:104F100030B20AB2814506920FFA83F8FFF630AF3D
:104F20001FFA89F5CCE700BF2DE9F04F8BB0002ABE
:104F3000BDF85450BDF95040039540F3A580002BB7
:104F400040F3A2809A421546A8BF1D466D1024EA80
:104F5000E474A542A8BF254607460895002D00F039
:104F6000D7801FFA80FCBDF82080624495B2A5EB83
:104F7000080A8EB21FFA83F91FFA8AFA039B00937C
:104F80000AF1FF30731EC4444B4402B280B21FFAD0
:104F90008CF41FFA83FB09901BB20FFA8CF0049477
:104FA000464406F00FFDABEB080B3846621E039F2C
:104FB00000970FFA8BF331B212B2CDE9051306F068
:104FC00001FD6A1E069B009712B20FFA8AF005993E
:104FD00006F0F8FC4FEA480309F1FF349BB2E41AEB
:104FE000B6B25B4224B21AB2C8F10105002CACBFC4
:104FF0003319331C1FFA83F92DB2089B06920592D0
:105000002F4607934FF0000BC246049B0399009173
:105010001FFA8BF4A3EB0A0212B209EB0403311B53
:1050200010461BB209B206F02FFA049B03990091B7
:105030001A1B12B209EB0A03A6EB0A011BB209B252
:10504000104606F021FA059B9A1C6300033307EB18
:105050004404002F17FA82F70AF1FF3104F1030428
:105060000BF1010B3B4412DB08B20FFA8BF112B2C9
:105070008142079005921FB20FDC1FFA80FAC4E745
:105080003BB29A4525B20BDA0BB0BDE8F08F079A18
:105090000FFA8BF39A4227B2B7DADDE908AB0027A3
:1050A000BCB2039900910BEB040212B208EB0903A6
:1050B000A6EB080110461BB209B206F0E5F9039908
:1050C00000910BEB080212B204EB0903311B1BB277
:1050D00009B2104606F0D8F9069B9A1C6300033308
:1050E00005EB4404002D15FA82F508F1FF3104F1B7
:1050F000030407F101072B44C2DB0FFA81FA39B22E
:1051000012B28A4506921DB2BEDB1FFA8AF8C7E7C3
:105110004E1E471E039C149433443A441BB212B2F1
:105120000BB0BDE8F04F06F04DBC00BFF8B5174B13
:105130004268B3F90070836817441F44EF2F24D8E6
:10514000134A0368B2F90040C268002A05461C44AD
:105150001BDD00263FB2002C12DBEF2C15DCEB69C7
:1051600095F829109B5D19B195F82810994207D040
:105170002A6A20B232F81320394606F05BF9EA6851
:105180000136964204F10104E5DBF8BDD21A002095
:10519000D01A00200249034A00230B701370704795
:1051A000D41A0020DC1A002070B545F650620021A8
:1051B0002048214C0CF0B2FB1E480021FCF70EFCED
:1051C0004FF0000C1D4B1E4A1E491A4884F800C0BF
:1051D000FCF710FCC0B2207018B91B4B01221A70EA
:1051E00070BD1448FCF756FC06461248FCF754FC08
:1051F000054607F047F9044607F04AF9A31B401B90
:105200001249134A03EBD37300EBD0705B104010CC
:105210000B80108006F024F907F086FC08F056FF9A
:105220000028FBD108F0FAFF0A4B1860064B012258
:105230001A7070BD00000010DC1A00202D5100080B
:105240002C490100882C0508D41A0020D01A00200F
:10525000D21A0020D81A00202DE9F04F314B1B78CC
:1052600083B04BB1304B314A31493248FCF7C2FB75
:1052700028B903B0BDE8F08FFFF796FFF2E72D489D
:105280002D4EDFF8C0902D4FDFF8BC80FCF702FCFC
:10529000034628483380FCF7FFFBB6F9003000B224
:1052A000C3F1F003C0F1F00203EBD37302EBD2724F
:1052B0005B10A9F8003053103880A8F8003006F0D1
:1052C000CFF807F031FC08F001FF0028FBD11C4D9E
:1052D000DFF860A0019008F0F9FE83460028FAD1BB
:1052E00008F09CFF2B6883420446F4D85A4601A973
:1052F0005046FCF7A3FBB7F90030B6F90020B8F927
:105300000010B9F9000007F09FF9019A002A4FF048
:105310000103CCBF134601221C44D8BF01922C606C
:10532000D9E700BFD41A00202D5100082C490100F4
:10533000882C050800000010CE1A0020CC1A00208E
:10534000D81A0020D01A0020D21A00202DE9F04FE0
:1053500083B01546DDF83490009399F80020BDF82D
:1053600038309DF830B09DF83CA001930746884640
:10537000002A49D009F1010400260A2A114658469C
:1053800007D00D2A05D007F06BF807F077F8304406
:1053900006B214F8012B002AEFD199F80010484604
:1053A00039B10A2901D00D2927D110F8011F002990
:1053B000F7D1B446019B0C93009BBFB21FFA88F84B
:1053C000A3EB0804EB1B0134013324B21BB2A4EBA2
:1053D0000A04A3EB0C0304EBD47403EBD37307EBC5
:1053E000630708EB64084B465A460FFA88F138B257
:1053F00003B0BDE8F04F06F059BF584607F030F84B
:1054000007F03EF88246D4E79446D3E7064A0748B9
:105410000749012310B4074C1370002202730B706C
:1054200022735DF8044B704735000020F01A00200D
:1054300034000020E01A00200549064A10B4012378
:10544000054C13700020087323705DF8044B7047FF
:10545000F01A00203400002035000020DE4BDFED84
:10546000DF7AD3ED006A9FEDDE6ADFEDDE5A76EE7D
:10547000A76AF3EE0A7AF4EEE76AF1EE10FAC6BF15
:10548000F3EE077AC3ED007AC3ED006AD64B93EDD5
:10549000007AC8BFF0EE676A37EE067ADFEDD37A9E
:1054A0009FEDD36AB4EEE77AF1EE10FACABFDFEDF2
:1054B000D17A83ED007AC3ED007ACF4BC8BFB0EE4E
:1054C000677AD3ED007A77EEA57AF4EEC67AF1EE3C
:1054D00010FACABF9FEDC96AC3ED007A83ED006A76
:1054E000C74B1B78C8BFF0EE467A002B40F0FA811C
:1054F000C44BC5492DE9F04F01220028A3B083ED2C
:10550000017AC3ED027A4FF00000C3ED006A1A730E
:105510004FF6FF764EF23C7314BFB2468246BB4C48
:10552000087041F6E30518BF1D4640F2FF731CBF2B
:105530001F2306460593504640F24A6318BF4FF4B6
:10554000FC6384ED017AC4ED027AC4ED006A227333
:1055500004934FF6E03718BF4FF4784705F06CFF1F
:10556000782108462B46762206F09EFD7821534688
:105570006822084606F098FDD4ED007ABAEE047A67
:10558000F4EEC77AF1EE10FA00F1B2819FEDA07A45
:10559000F4EEC77AF1EE10FA00F3F781B2EE047A76
:1055A00077EE877A9FED9B6ADFED9B6A87EE867ABE
:1055B00067EE267AFDEEE77A17EE909A09F1B409C4
:1055C0000FFA89F994ED017AB5EEC07AF1EE10FA8E
:1055D00000F19881DFED916AB4EEE67AF1EE10FA0F
:1055E00000F3DA81C7EE267A9FED8B7A67EE877A31
:1055F000FDEEE77A17EE903AB4331BB20693D4ED82
:10560000027A9FED877AF4EEC77AF1EE10FA00F194
:105610007C81DFED846AF4EEE67AF1EE10FA00F3B5
:10562000B78177EEC77A9FED716ADFED7B6A87EE0F
:10563000867A67EE267AFDEEE77A17EE903AB43373
:105640001BB207934FF006084FF4B47B7821019505
:10565000CDF80880CDF800B00846B423742206F0D7
:1056600037FD7821CDE90158CDF800B00846B423C4
:105670006A2206F02DFD7821CDE90158CDF800B061
:105680000846B423602206F023FD7821CDE9017895
:10569000CDF800900846B423742206F019FD069B4D
:1056A00000937821059BCDF8088001930846B42328
:1056B0006A2206F00DFD079A00927821049ACDF82F
:1056C000088001920846B423602206F001FD564B83
:1056D000009601221221692006F0E8FD009556236C
:1056E00074223021192006F06DF900965623742299
:1056F0003021192006F040F94FF010094FF0010851
:105700004A4B01930296CDF80C90CDF800804223CD
:10571000742232211920FFF719FE00955623D72253
:1057200030217C2006F04EF900965623D7223021F6
:105730007C2006F021F93E4B0193CDE90269CDF8BA
:1057400000804223D72232217C20FFF7FFFD009604
:10575000A623D7225C21192006F00EF955230095C7
:10576000732243211A2006F02DF92068FAF7ECFE87
:105770000DF1200BCDE900012E4A182158460BF0FF
:10578000D3FFCDF804B0CDE90279CDF800805623DF
:10579000742242211920FFF7D9FD55230095D62206
:1057A00043217D2006F00EF96068FAF7CDFE0DF179
:1057B000380BCDE90001204A182158460BF0B4FF00
:1057C000059BCDF80C90CDE901B3CDF800805623B0
:1057D000D72242217C2031E038000020CDCC4C3D46
:1057E000CDCCCC3DCDCC4C3E2C00002000008C42DA
:1057F00000807E4400000C423000002000807A448B
:1058000035000020F01A002034000020E01A0020AB
:105810000000204200004842000034430000C8421B
:10582000000075440040834434B9060838B90608BE
:1058300040B9060888B9060844B90608FFF786FD8E
:10584000A5230095D6225D211A2006F0BBF820681A
:10585000FAF77AFE14ADCDE90001514A1821284625
:105860000BF062FFCDE90157032320250093039538
:105870008623D72260211920FFF768FD494B019349
:10588000CDE90269CDF800809823D722882119201C
:10589000FFF75CFDBE23AA22CDF800A0A82144207A
:1058A00006F090F8A068FAF74FFE1AACCDE90001B7
:1058B0003D4A294620460BF037FF049A0292CDE973
:1058C0000084BE23CDF80C90AA22A8214420FFF723
:1058D0003DFDF02300211A46084606F0B5FE23B030
:1058E000BDE8F08F314B1A7B012A11D0304901E617
:1058F00094ED017AB5EEC07AF1EE10FA4FF0B409EA
:105900007FF568AEB423069379E6B423079399E64E
:1059100093ED006AD3ED015A93ED025ADFED254A6B
:1059200036EEC66A77EE655AB5EEC06A37EEC55AEE
:10593000F1EE10FAF5EEC05A48BFB1EE466AF1EE4C
:1059400010FAB5EEC05A48BFF1EE655AF1EE10FA02
:10595000B4EEE46A48BFB1EE455AF1EE10FAC5DC88
:105960009FED156AF4EEC65AF1EE10FABEDC9FED1B
:10597000136A0F49B4EEC65AF1EE10FA3FF7BAAD0A
:105980000A78002A7FF4B6AD70474FF4B47919E66F
:105990004FF4B473079355E64FF4B47306932EE6B1
:1059A00088B906084CB9060858B90608F01A00204C
:1059B00034000020CDCC4C3DCDCC4C3E9A99993E44
:1059C0002DE9F04FCE4ECF4F96ED007AD7ED007A0D
:1059D000CD4DCE4CDFF88083DFF880B3DFF880A3B5
:1059E000DFF880932DED0A8BBDEEC77A85B0FDEE12
:1059F000E77A0023009317EE902A17EE103AB5F9D4
:105A00000010B4F900009FEDC28A9FEDC2CADFED1D
:105A1000C29A9FEDC2BA1BB212B205F035FDC04B5F
:105A2000C04993ED007AD1ED007ABF48BF4B90EDAD
:105A3000005AD3ED005A96ED006AD7ED006ABC4FCC
:105A4000BDEEC77AFDEEE77A17EE10CABDEEC55A75
:105A50000FFA8CF317EE90CAFDEEE55A01930FFA98
:105A60008CF315EE10CABDEEC66A00930FFA8CF3E4
:105A700015EE90CAFDEEE66A0FFA8CF216EE10CA29
:105A80000FFA8CF116EE90CA002002900FFA8CF0FB
:105A900005F0D2FFA748D7ED007A90ED007ABDEE71
:105AA000C77A4FF0000CCDF800C0FDEEE77A17EE94
:105AB00010CA0FFA8CF317EE90CAB4F90000B5F9CA
:105AC00000100FFA8CF205F0DFFC9B4BDFED9B6AB8
:105AD000D3ED007A9FED9A7A67EEA67AF3EE04BAD8
